{
  "_format": "hh-sol-artifact-1",
  "contractName": "EthBiscuits",
  "sourceName": "contracts/Biscuits.sol",
  "abi": [
    {
      "inputs": [],
      "stateMutability": "nonpayable",
      "type": "constructor"
    },
    {
      "inputs": [
        {
          "internalType": "address",
          "name": "sender",
          "type": "address"
        },
        {
          "internalType": "uint256",
          "name": "balance",
          "type": "uint256"
        },
        {
          "internalType": "uint256",
          "name": "needed",
          "type": "uint256"
        },
        {
          "internalType": "uint256",
          "name": "tokenId",
          "type": "uint256"
        }
      ],
      "name": "ERC1155InsufficientBalance",
      "type": "error"
    },
    {
      "inputs": [
        {
          "internalType": "address",
          "name": "approver",
          "type": "address"
        }
      ],
      "name": "ERC1155InvalidApprover",
      "type": "error"
    },
    {
      "inputs": [
        {
          "internalType": "uint256",
          "name": "idsLength",
          "type": "uint256"
        },
        {
          "internalType": "uint256",
          "name": "valuesLength",
          "type": "uint256"
        }
      ],
      "name": "ERC1155InvalidArrayLength",
      "type": "error"
    },
    {
      "inputs": [
        {
          "internalType": "address",
          "name": "operator",
          "type": "address"
        }
      ],
      "name": "ERC1155InvalidOperator",
      "type": "error"
    },
    {
      "inputs": [
        {
          "internalType": "address",
          "name": "receiver",
          "type": "address"
        }
      ],
      "name": "ERC1155InvalidReceiver",
      "type": "error"
    },
    {
      "inputs": [
        {
          "internalType": "address",
          "name": "sender",
          "type": "address"
        }
      ],
      "name": "ERC1155InvalidSender",
      "type": "error"
    },
    {
      "inputs": [
        {
          "internalType": "address",
          "name": "operator",
          "type": "address"
        },
        {
          "internalType": "address",
          "name": "owner",
          "type": "address"
        }
      ],
      "name": "ERC1155MissingApprovalForAll",
      "type": "error"
    },
    {
      "anonymous": false,
      "inputs": [
        {
          "indexed": true,
          "internalType": "address",
          "name": "account",
          "type": "address"
        },
        {
          "indexed": true,
          "internalType": "address",
          "name": "operator",
          "type": "address"
        },
        {
          "indexed": false,
          "internalType": "bool",
          "name": "approved",
          "type": "bool"
        }
      ],
      "name": "ApprovalForAll",
      "type": "event"
    },
    {
      "anonymous": false,
      "inputs": [
        {
          "indexed": false,
          "internalType": "uint256",
          "name": "dislikes",
          "type": "uint256"
        },
        {
          "indexed": false,
          "internalType": "uint256",
          "name": "vid",
          "type": "uint256"
        }
      ],
      "name": "DisLiked",
      "type": "event"
    },
    {
      "anonymous": false,
      "inputs": [
        {
          "indexed": false,
          "internalType": "uint256",
          "name": "likes",
          "type": "uint256"
        },
        {
          "indexed": false,
          "internalType": "uint256",
          "name": "vid",
          "type": "uint256"
        }
      ],
      "name": "Liked",
      "type": "event"
    },
    {
      "anonymous": false,
      "inputs": [
        {
          "indexed": false,
          "internalType": "uint256",
          "name": "subscribe",
          "type": "uint256"
        },
        {
          "indexed": false,
          "internalType": "address",
          "name": "subscribedaddress",
          "type": "address"
        }
      ],
      "name": "Subscribed",
      "type": "event"
    },
    {
      "anonymous": false,
      "inputs": [
        {
          "indexed": true,
          "internalType": "address",
          "name": "operator",
          "type": "address"
        },
        {
          "indexed": true,
          "internalType": "address",
          "name": "from",
          "type": "address"
        },
        {
          "indexed": true,
          "internalType": "address",
          "name": "to",
          "type": "address"
        },
        {
          "indexed": false,
          "internalType": "uint256[]",
          "name": "ids",
          "type": "uint256[]"
        },
        {
          "indexed": false,
          "internalType": "uint256[]",
          "name": "values",
          "type": "uint256[]"
        }
      ],
      "name": "TransferBatch",
      "type": "event"
    },
    {
      "anonymous": false,
      "inputs": [
        {
          "indexed": true,
          "internalType": "address",
          "name": "operator",
          "type": "address"
        },
        {
          "indexed": true,
          "internalType": "address",
          "name": "from",
          "type": "address"
        },
        {
          "indexed": true,
          "internalType": "address",
          "name": "to",
          "type": "address"
        },
        {
          "indexed": false,
          "internalType": "uint256",
          "name": "id",
          "type": "uint256"
        },
        {
          "indexed": false,
          "internalType": "uint256",
          "name": "value",
          "type": "uint256"
        }
      ],
      "name": "TransferSingle",
      "type": "event"
    },
    {
      "anonymous": false,
      "inputs": [
        {
          "indexed": false,
          "internalType": "string",
          "name": "value",
          "type": "string"
        },
        {
          "indexed": true,
          "internalType": "uint256",
          "name": "id",
          "type": "uint256"
        }
      ],
      "name": "URI",
      "type": "event"
    },
    {
      "anonymous": false,
      "inputs": [
        {
          "indexed": false,
          "internalType": "uint256",
          "name": "id",
          "type": "uint256"
        },
        {
          "indexed": false,
          "internalType": "string",
          "name": "name",
          "type": "string"
        },
        {
          "indexed": false,
          "internalType": "address",
          "name": "owner",
          "type": "address"
        },
        {
          "indexed": false,
          "internalType": "uint256",
          "name": "duration",
          "type": "uint256"
        },
        {
          "indexed": false,
          "internalType": "bool",
          "name": "gaming",
          "type": "bool"
        },
        {
          "indexed": false,
          "internalType": "bool",
          "name": "movies",
          "type": "bool"
        },
        {
          "indexed": false,
          "internalType": "bool",
          "name": "music",
          "type": "bool"
        },
        {
          "indexed": false,
          "internalType": "bool",
          "name": "comedy",
          "type": "bool"
        },
        {
          "indexed": false,
          "internalType": "bool",
          "name": "action",
          "type": "bool"
        },
        {
          "indexed": false,
          "internalType": "bool",
          "name": "education",
          "type": "bool"
        },
        {
          "indexed": false,
          "internalType": "uint256",
          "name": "uploadDate",
          "type": "uint256"
        }
      ],
      "name": "VideoUploaded",
      "type": "event"
    },
    {
      "anonymous": false,
      "inputs": [
        {
          "indexed": false,
          "internalType": "uint256",
          "name": "View",
          "type": "uint256"
        },
        {
          "indexed": false,
          "internalType": "uint256",
          "name": "vid",
          "type": "uint256"
        }
      ],
      "name": "View",
      "type": "event"
    },
    {
      "inputs": [
        {
          "internalType": "address",
          "name": "newowner",
          "type": "address"
        },
        {
          "internalType": "uint256",
          "name": "videoId",
          "type": "uint256"
        }
      ],
      "name": "authorityChange",
      "outputs": [],
      "stateMutability": "nonpayable",
      "type": "function"
    },
    {
      "inputs": [
        {
          "internalType": "uint256",
          "name": "_VideoId",
          "type": "uint256"
        }
      ],
      "name": "automatedPopularityMaker",
      "outputs": [
        {
          "internalType": "uint256",
          "name": "",
          "type": "uint256"
        }
      ],
      "stateMutability": "view",
      "type": "function"
    },
    {
      "inputs": [
        {
          "internalType": "address",
          "name": "account",
          "type": "address"
        },
        {
          "internalType": "uint256",
          "name": "id",
          "type": "uint256"
        }
      ],
      "name": "balanceOf",
      "outputs": [
        {
          "internalType": "uint256",
          "name": "",
          "type": "uint256"
        }
      ],
      "stateMutability": "view",
      "type": "function"
    },
    {
      "inputs": [
        {
          "internalType": "address[]",
          "name": "accounts",
          "type": "address[]"
        },
        {
          "internalType": "uint256[]",
          "name": "ids",
          "type": "uint256[]"
        }
      ],
      "name": "balanceOfBatch",
      "outputs": [
        {
          "internalType": "uint256[]",
          "name": "",
          "type": "uint256[]"
        }
      ],
      "stateMutability": "view",
      "type": "function"
    },
    {
      "inputs": [
        {
          "internalType": "address",
          "name": "user",
          "type": "address"
        }
      ],
      "name": "checkbalance",
      "outputs": [
        {
          "internalType": "uint256",
          "name": "",
          "type": "uint256"
        }
      ],
      "stateMutability": "view",
      "type": "function"
    },
    {
      "inputs": [
        {
          "internalType": "uint256",
          "name": "_VideoId",
          "type": "uint256"
        }
      ],
      "name": "disLike",
      "outputs": [],
      "stateMutability": "nonpayable",
      "type": "function"
    },
    {
      "inputs": [],
      "name": "getALLVideos",
      "outputs": [
        {
          "components": [
            {
              "internalType": "string",
              "name": "VideoURI",
              "type": "string"
            },
            {
              "internalType": "string",
              "name": "ImageURI",
              "type": "string"
            },
            {
              "internalType": "string",
              "name": "name",
              "type": "string"
            },
            {
              "internalType": "string",
              "name": "discription",
              "type": "string"
            },
            {
              "internalType": "address",
              "name": "owner",
              "type": "address"
            },
            {
              "internalType": "uint256",
              "name": "views",
              "type": "uint256"
            },
            {
              "internalType": "uint256",
              "name": "likes",
              "type": "uint256"
            },
            {
              "internalType": "uint256",
              "name": "dislikes",
              "type": "uint256"
            },
            {
              "internalType": "uint256",
              "name": "duration",
              "type": "uint256"
            },
            {
              "internalType": "bool",
              "name": "gaming",
              "type": "bool"
            },
            {
              "internalType": "bool",
              "name": "movies",
              "type": "bool"
            },
            {
              "internalType": "bool",
              "name": "music",
              "type": "bool"
            },
            {
              "internalType": "bool",
              "name": "comedy",
              "type": "bool"
            },
            {
              "internalType": "bool",
              "name": "action",
              "type": "bool"
            },
            {
              "internalType": "bool",
              "name": "education",
              "type": "bool"
            },
            {
              "internalType": "uint256",
              "name": "uploadDate",
              "type": "uint256"
            }
          ],
          "internalType": "struct EthBiscuits.Video[]",
          "name": "",
          "type": "tuple[]"
        }
      ],
      "stateMutability": "view",
      "type": "function"
    },
    {
      "inputs": [
        {
          "internalType": "address",
          "name": "user",
          "type": "address"
        }
      ],
      "name": "getUserVideo",
      "outputs": [
        {
          "components": [
            {
              "internalType": "string",
              "name": "VideoURI",
              "type": "string"
            },
            {
              "internalType": "string",
              "name": "ImageURI",
              "type": "string"
            },
            {
              "internalType": "string",
              "name": "name",
              "type": "string"
            },
            {
              "internalType": "string",
              "name": "discription",
              "type": "string"
            },
            {
              "internalType": "address",
              "name": "owner",
              "type": "address"
            },
            {
              "internalType": "uint256",
              "name": "views",
              "type": "uint256"
            },
            {
              "internalType": "uint256",
              "name": "likes",
              "type": "uint256"
            },
            {
              "internalType": "uint256",
              "name": "dislikes",
              "type": "uint256"
            },
            {
              "internalType": "uint256",
              "name": "duration",
              "type": "uint256"
            },
            {
              "internalType": "bool",
              "name": "gaming",
              "type": "bool"
            },
            {
              "internalType": "bool",
              "name": "movies",
              "type": "bool"
            },
            {
              "internalType": "bool",
              "name": "music",
              "type": "bool"
            },
            {
              "internalType": "bool",
              "name": "comedy",
              "type": "bool"
            },
            {
              "internalType": "bool",
              "name": "action",
              "type": "bool"
            },
            {
              "internalType": "bool",
              "name": "education",
              "type": "bool"
            },
            {
              "internalType": "uint256",
              "name": "uploadDate",
              "type": "uint256"
            }
          ],
          "internalType": "struct EthBiscuits.Video[]",
          "name": "",
          "type": "tuple[]"
        }
      ],
      "stateMutability": "view",
      "type": "function"
    },
    {
      "inputs": [
        {
          "internalType": "address",
          "name": "account",
          "type": "address"
        },
        {
          "internalType": "address",
          "name": "operator",
          "type": "address"
        }
      ],
      "name": "isApprovedForAll",
      "outputs": [
        {
          "internalType": "bool",
          "name": "",
          "type": "bool"
        }
      ],
      "stateMutability": "view",
      "type": "function"
    },
    {
      "inputs": [
        {
          "internalType": "uint256",
          "name": "_VideoId",
          "type": "uint256"
        }
      ],
      "name": "like",
      "outputs": [],
      "stateMutability": "nonpayable",
      "type": "function"
    },
    {
      "inputs": [],
      "name": "mintToken",
      "outputs": [],
      "stateMutability": "nonpayable",
      "type": "function"
    },
    {
      "inputs": [
        {
          "internalType": "uint256",
          "name": "_VideoId",
          "type": "uint256"
        }
      ],
      "name": "popularity",
      "outputs": [
        {
          "internalType": "uint256",
          "name": "",
          "type": "uint256"
        }
      ],
      "stateMutability": "view",
      "type": "function"
    },
    {
      "inputs": [
        {
          "internalType": "string",
          "name": "_name",
          "type": "string"
        }
      ],
      "name": "registerUSer",
      "outputs": [],
      "stateMutability": "nonpayable",
      "type": "function"
    },
    {
      "inputs": [
        {
          "internalType": "address",
          "name": "from",
          "type": "address"
        },
        {
          "internalType": "address",
          "name": "to",
          "type": "address"
        },
        {
          "internalType": "uint256[]",
          "name": "ids",
          "type": "uint256[]"
        },
        {
          "internalType": "uint256[]",
          "name": "values",
          "type": "uint256[]"
        },
        {
          "internalType": "bytes",
          "name": "data",
          "type": "bytes"
        }
      ],
      "name": "safeBatchTransferFrom",
      "outputs": [],
      "stateMutability": "nonpayable",
      "type": "function"
    },
    {
      "inputs": [
        {
          "internalType": "address",
          "name": "from",
          "type": "address"
        },
        {
          "internalType": "address",
          "name": "to",
          "type": "address"
        },
        {
          "internalType": "uint256",
          "name": "id",
          "type": "uint256"
        },
        {
          "internalType": "uint256",
          "name": "value",
          "type": "uint256"
        },
        {
          "internalType": "bytes",
          "name": "data",
          "type": "bytes"
        }
      ],
      "name": "safeTransferFrom",
      "outputs": [],
      "stateMutability": "nonpayable",
      "type": "function"
    },
    {
      "inputs": [
        {
          "internalType": "address",
          "name": "operator",
          "type": "address"
        },
        {
          "internalType": "bool",
          "name": "approved",
          "type": "bool"
        }
      ],
      "name": "setApprovalForAll",
      "outputs": [],
      "stateMutability": "nonpayable",
      "type": "function"
    },
    {
      "inputs": [
        {
          "internalType": "address",
          "name": "to",
          "type": "address"
        }
      ],
      "name": "subscribe",
      "outputs": [],
      "stateMutability": "nonpayable",
      "type": "function"
    },
    {
      "inputs": [
        {
          "internalType": "bytes4",
          "name": "interfaceId",
          "type": "bytes4"
        }
      ],
      "name": "supportsInterface",
      "outputs": [
        {
          "internalType": "bool",
          "name": "",
          "type": "bool"
        }
      ],
      "stateMutability": "view",
      "type": "function"
    },
    {
      "inputs": [
        {
          "internalType": "string",
          "name": "_VideoURI",
          "type": "string"
        },
        {
          "internalType": "string",
          "name": "_ImageURI",
          "type": "string"
        },
        {
          "internalType": "uint256",
          "name": "_duration",
          "type": "uint256"
        },
        {
          "internalType": "string",
          "name": "_name",
          "type": "string"
        },
        {
          "internalType": "string",
          "name": "_description",
          "type": "string"
        },
        {
          "internalType": "bool",
          "name": "_gaming",
          "type": "bool"
        },
        {
          "internalType": "bool",
          "name": "_movies",
          "type": "bool"
        },
        {
          "internalType": "bool",
          "name": "_music",
          "type": "bool"
        },
        {
          "internalType": "bool",
          "name": "_comedy",
          "type": "bool"
        },
        {
          "internalType": "bool",
          "name": "_action",
          "type": "bool"
        },
        {
          "internalType": "bool",
          "name": "_education",
          "type": "bool"
        }
      ],
      "name": "uploadVideo",
      "outputs": [],
      "stateMutability": "nonpayable",
      "type": "function"
    },
    {
      "inputs": [
        {
          "internalType": "uint256",
          "name": "",
          "type": "uint256"
        }
      ],
      "name": "uri",
      "outputs": [
        {
          "internalType": "string",
          "name": "",
          "type": "string"
        }
      ],
      "stateMutability": "view",
      "type": "function"
    },
    {
      "inputs": [
        {
          "internalType": "uint256",
          "name": "_VideoId",
          "type": "uint256"
        }
      ],
      "name": "viewUpdate",
      "outputs": [],
      "stateMutability": "nonpayable",
      "type": "function"
    },
    {
      "inputs": [
        {
          "internalType": "address",
          "name": "user",
          "type": "address"
        }
      ],
      "name": "viewUser",
      "outputs": [
        {
          "components": [
            {
              "internalType": "string",
              "name": "name",
              "type": "string"
            },
            {
              "internalType": "address",
              "name": "useraddress",
              "type": "address"
            },
            {
              "internalType": "uint256",
              "name": "subscribe",
              "type": "uint256"
            },
            {
              "internalType": "address[]",
              "name": "subscribersAddress",
              "type": "address[]"
            },
            {
              "internalType": "uint256[]",
              "name": "videoID",
              "type": "uint256[]"
            }
          ],
          "internalType": "struct EthBiscuits.User",
          "name": "",
          "type": "tuple"
        }
      ],
      "stateMutability": "view",
      "type": "function"
    },
    {
      "inputs": [
        {
          "internalType": "uint256",
          "name": "_id",
          "type": "uint256"
        }
      ],
      "name": "viewVideo",
      "outputs": [
        {
          "components": [
            {
              "internalType": "string",
              "name": "VideoURI",
              "type": "string"
            },
            {
              "internalType": "string",
              "name": "ImageURI",
              "type": "string"
            },
            {
              "internalType": "string",
              "name": "name",
              "type": "string"
            },
            {
              "internalType": "string",
              "name": "discription",
              "type": "string"
            },
            {
              "internalType": "address",
              "name": "owner",
              "type": "address"
            },
            {
              "internalType": "uint256",
              "name": "views",
              "type": "uint256"
            },
            {
              "internalType": "uint256",
              "name": "likes",
              "type": "uint256"
            },
            {
              "internalType": "uint256",
              "name": "dislikes",
              "type": "uint256"
            },
            {
              "internalType": "uint256",
              "name": "duration",
              "type": "uint256"
            },
            {
              "internalType": "bool",
              "name": "gaming",
              "type": "bool"
            },
            {
              "internalType": "bool",
              "name": "movies",
              "type": "bool"
            },
            {
              "internalType": "bool",
              "name": "music",
              "type": "bool"
            },
            {
              "internalType": "bool",
              "name": "comedy",
              "type": "bool"
            },
            {
              "internalType": "bool",
              "name": "action",
              "type": "bool"
            },
            {
              "internalType": "bool",
              "name": "education",
              "type": "bool"
            },
            {
              "internalType": "uint256",
              "name": "uploadDate",
              "type": "uint256"
            }
          ],
          "internalType": "struct EthBiscuits.Video",
          "name": "",
          "type": "tuple"
        }
      ],
      "stateMutability": "view",
      "type": "function"
    }
  ],
  "bytecode": "0x608060405260016004553480156200001657600080fd5b506040518060200160405280600081525062000038816200006a60201b60201c565b5062000064336001662386f26fc10000604051806020016040528060008152506200007f60201b60201c565b620011ba565b80600290816200007b919062000c22565b5050565b600073ffffffffffffffffffffffffffffffffffffffff168473ffffffffffffffffffffffffffffffffffffffff1603620000f45760006040517f57f447ce000000000000000000000000000000000000000000000000000000008152600401620000eb919062000d4e565b60405180910390fd5b6000806200010985856200012b60201b60201c565b91509150620001236000878484876200015b60201b60201c565b505050505050565b60608060405191506001825283602083015260408201905060018152826020820152604081016040529250929050565b6200016f858585856200023460201b60201c565b600073ffffffffffffffffffffffffffffffffffffffff168473ffffffffffffffffffffffffffffffffffffffff16146200022d576000620001b66200060660201b60201c565b9050600184510362000214576000620001da6000866200060e60201b90919060201c565b90506000620001f46000866200060e60201b90919060201c565b90506200020c8389898585896200062260201b60201c565b50506200022b565b6200022a818787878787620007e560201b60201c565b5b505b5050505050565b80518251146200028157815181516040517f5b0599910000000000000000000000000000000000000000000000000000000081526004016200027892919062000d7c565b60405180910390fd5b6000620002936200060660201b60201c565b905060005b8351811015620004b7576000620002b982866200060e60201b90919060201c565b90506000620002d283866200060e60201b90919060201c565b9050600073ffffffffffffffffffffffffffffffffffffffff168873ffffffffffffffffffffffffffffffffffffffff16146200040357600080600084815260200190815260200160002060008a73ffffffffffffffffffffffffffffffffffffffff1673ffffffffffffffffffffffffffffffffffffffff16815260200190815260200160002054905081811015620003ab57888183856040517f03dee4c5000000000000000000000000000000000000000000000000000000008152600401620003a2949392919062000da9565b60405180910390fd5b81810360008085815260200190815260200160002060008b73ffffffffffffffffffffffffffffffffffffffff1673ffffffffffffffffffffffffffffffffffffffff16815260200190815260200160002081905550505b600073ffffffffffffffffffffffffffffffffffffffff168773ffffffffffffffffffffffffffffffffffffffff1614620004a1578060008084815260200190815260200160002060008973ffffffffffffffffffffffffffffffffffffffff1673ffffffffffffffffffffffffffffffffffffffff168152602001908152602001600020600082825462000499919062000e25565b925050819055505b505080620004af9062000e60565b905062000298565b5060018351036200057e576000620004da6000856200060e60201b90919060201c565b90506000620004f46000856200060e60201b90919060201c565b90508573ffffffffffffffffffffffffffffffffffffffff168773ffffffffffffffffffffffffffffffffffffffff168473ffffffffffffffffffffffffffffffffffffffff167fc3d58168c5ae7397731d063d5bbf3d657854427343f4c083240f7aacaa2d0f6285856040516200056e92919062000d7c565b60405180910390a45050620005ff565b8373ffffffffffffffffffffffffffffffffffffffff168573ffffffffffffffffffffffffffffffffffffffff168273ffffffffffffffffffffffffffffffffffffffff167f4a39dc06d4c0dbc64b70af90fd698a233a518aa5d07e595d983b8c0526c8f7fb8686604051620005f692919062000f7b565b60405180910390a45b5050505050565b600033905090565b600060208202602084010151905092915050565b60008473ffffffffffffffffffffffffffffffffffffffff163b1115620007dd578373ffffffffffffffffffffffffffffffffffffffff1663f23a6e6187878686866040518663ffffffff1660e01b81526004016200068695949392919062001050565b6020604051808303816000875af1925050508015620006c557506040513d601f19601f82011682018060405250810190620006c2919062001116565b60015b6200074f573d8060008114620006f8576040519150601f19603f3d011682016040523d82523d6000602084013e620006fd565b606091505b5060008151036200074757846040517f57f447ce0000000000000000000000000000000000000000000000000000000081526004016200073e919062000d4e565b60405180910390fd5b805181602001fd5b63f23a6e6160e01b7bffffffffffffffffffffffffffffffffffffffffffffffffffffffff1916817bffffffffffffffffffffffffffffffffffffffffffffffffffffffff191614620007db57846040517f57f447ce000000000000000000000000000000000000000000000000000000008152600401620007d2919062000d4e565b60405180910390fd5b505b505050505050565b60008473ffffffffffffffffffffffffffffffffffffffff163b1115620009a0578373ffffffffffffffffffffffffffffffffffffffff1663bc197c8187878686866040518663ffffffff1660e01b81526004016200084995949392919062001148565b6020604051808303816000875af19250505080156200088857506040513d601f19601f8201168201806040525081019062000885919062001116565b60015b62000912573d8060008114620008bb576040519150601f19603f3d011682016040523d82523d6000602084013e620008c0565b606091505b5060008151036200090a57846040517f57f447ce00000000000000000000000000000000000000000000000000000000815260040162000901919062000d4e565b60405180910390fd5b805181602001fd5b63bc197c8160e01b7bffffffffffffffffffffffffffffffffffffffffffffffffffffffff1916817bffffffffffffffffffffffffffffffffffffffffffffffffffffffff1916146200099e57846040517f57f447ce00000000000000000000000000000000000000000000000000000000815260040162000995919062000d4e565b60405180910390fd5b505b505050505050565b600081519050919050565b7f4e487b7100000000000000000000000000000000000000000000000000000000600052604160045260246000fd5b7f4e487b7100000000000000000000000000000000000000000000000000000000600052602260045260246000fd5b6000600282049050600182168062000a2a57607f821691505b60208210810362000a405762000a3f620009e2565b5b50919050565b60008190508160005260206000209050919050565b60006020601f8301049050919050565b600082821b905092915050565b60006008830262000aaa7fffffffffffffffffffffffffffffffffffffffffffffffffffffffffffffffff8262000a6b565b62000ab6868362000a6b565b95508019841693508086168417925050509392505050565b6000819050919050565b6000819050919050565b600062000b0362000afd62000af78462000ace565b62000ad8565b62000ace565b9050919050565b6000819050919050565b62000b1f8362000ae2565b62000b3762000b2e8262000b0a565b84845462000a78565b825550505050565b600090565b62000b4e62000b3f565b62000b5b81848462000b14565b505050565b5b8181101562000b835762000b7760008262000b44565b60018101905062000b61565b5050565b601f82111562000bd25762000b9c8162000a46565b62000ba78462000a5b565b8101602085101562000bb7578190505b62000bcf62000bc68562000a5b565b83018262000b60565b50505b505050565b600082821c905092915050565b600062000bf76000198460080262000bd7565b1980831691505092915050565b600062000c12838362000be4565b9150826002028217905092915050565b62000c2d82620009a8565b67ffffffffffffffff81111562000c495762000c48620009b3565b5b62000c55825462000a11565b62000c6282828562000b87565b600060209050601f83116001811462000c9a576000841562000c85578287015190505b62000c91858262000c04565b86555062000d01565b601f19841662000caa8662000a46565b60005b8281101562000cd45784890151825560018201915060208501945060208101905062000cad565b8683101562000cf4578489015162000cf0601f89168262000be4565b8355505b6001600288020188555050505b505050505050565b600073ffffffffffffffffffffffffffffffffffffffff82169050919050565b600062000d368262000d09565b9050919050565b62000d488162000d29565b82525050565b600060208201905062000d65600083018462000d3d565b92915050565b62000d768162000ace565b82525050565b600060408201905062000d93600083018562000d6b565b62000da2602083018462000d6b565b9392505050565b600060808201905062000dc0600083018762000d3d565b62000dcf602083018662000d6b565b62000dde604083018562000d6b565b62000ded606083018462000d6b565b95945050505050565b7f4e487b7100000000000000000000000000000000000000000000000000000000600052601160045260246000fd5b600062000e328262000ace565b915062000e3f8362000ace565b925082820190508082111562000e5a5762000e5962000df6565b5b92915050565b600062000e6d8262000ace565b91507fffffffffffffffffffffffffffffffffffffffffffffffffffffffffffffffff820362000ea25762000ea162000df6565b5b600182019050919050565b600081519050919050565b600082825260208201905092915050565b6000819050602082019050919050565b62000ee48162000ace565b82525050565b600062000ef8838362000ed9565b60208301905092915050565b6000602082019050919050565b600062000f1e8262000ead565b62000f2a818562000eb8565b935062000f378362000ec9565b8060005b8381101562000f6e57815162000f52888262000eea565b975062000f5f8362000f04565b92505060018101905062000f3b565b5085935050505092915050565b6000604082019050818103600083015262000f97818562000f11565b9050818103602083015262000fad818462000f11565b90509392505050565b600081519050919050565b600082825260208201905092915050565b60005b8381101562000ff257808201518184015260208101905062000fd5565b60008484015250505050565b6000601f19601f8301169050919050565b60006200101c8262000fb6565b62001028818562000fc1565b93506200103a81856020860162000fd2565b620010458162000ffe565b840191505092915050565b600060a08201905062001067600083018862000d3d565b62001076602083018762000d3d565b62001085604083018662000d6b565b62001094606083018562000d6b565b8181036080830152620010a881846200100f565b90509695505050505050565b600080fd5b60007fffffffff0000000000000000000000000000000000000000000000000000000082169050919050565b620010f081620010b9565b8114620010fc57600080fd5b50565b6000815190506200111081620010e5565b92915050565b6000602082840312156200112f576200112e620010b4565b5b60006200113f84828501620010ff565b91505092915050565b600060a0820190506200115f600083018862000d3d565b6200116e602083018762000d3d565b818103604083015262001182818662000f11565b9050818103606083015262001198818562000f11565b90508181036080830152620011ae81846200100f565b90509695505050505050565b61507e80620011ca6000396000f3fe608060405234801561001057600080fd5b506004361061014c5760003560e01c80634e1273f4116100c3578063a973db7d1161007c578063a973db7d146103bd578063c6f9487d146103d9578063e82935da14610409578063e83029bb14610425578063e985e9c514610455578063f242432a146104855761014c565b80634e1273f4146102c55780636cc8bda7146102f55780637227ea121461032557806382d43908146103415780638aba7d7a14610371578063a22cb465146103a15761014c565b80632004ffd9116101155780632004ffd91461021957806321e1cfa5146102235780632eb2c2d61461025357806338d3f1651461026f5780633943095c1461028d57806341a7726a146102a95761014c565b8062fdd58e1461015157806301ffc9a714610181578063045142f2146101b15780630e89341c146101cd57806310b48cfa146101fd575b600080fd5b61016b6004803603810190610166919061373b565b6104a1565b604051610178919061378a565b60405180910390f35b61019b600480360381019061019691906137fd565b6104fb565b6040516101a89190613845565b60405180910390f35b6101cb60048036038101906101c691906139d2565b6105dd565b005b6101e760048036038101906101e29190613b36565b610995565b6040516101f49190613be2565b60405180910390f35b61021760048036038101906102129190613c04565b610a29565b005b610221610b66565b005b61023d60048036038101906102389190613b36565b610b89565b60405161024a919061378a565b60405180910390f35b61026d60048036038101906102689190613db6565b610bc1565b005b610277610c69565b604051610284919061412b565b60405180910390f35b6102a760048036038101906102a2919061373b565b6111a0565b005b6102c360048036038101906102be919061414d565b6115c7565b005b6102df60048036038101906102da919061423d565b611740565b6040516102ec9190614364565b60405180910390f35b61030f600480360381019061030a919061414d565b61184f565b60405161031c9190614528565b60405180910390f35b61033f600480360381019061033a9190613b36565b611a80565b005b61035b60048036038101906103569190613b36565b611b10565b604051610368919061378a565b60405180910390f35b61038b60048036038101906103869190613b36565b611b43565b60405161039891906146b7565b60405180910390f35b6103bb60048036038101906103b691906146d9565b611ee3565b005b6103d760048036038101906103d29190613b36565b611ef9565b005b6103f360048036038101906103ee919061414d565b611f77565b604051610400919061412b565b60405180910390f35b610423600480360381019061041e9190613b36565b6126d4565b005b61043f600480360381019061043a919061414d565b612752565b60405161044c919061378a565b60405180910390f35b61046f600480360381019061046a9190614719565b61276b565b60405161047c9190613845565b60405180910390f35b61049f600480360381019061049a9190614759565b6127ff565b005b600080600083815260200190815260200160002060008473ffffffffffffffffffffffffffffffffffffffff1673ffffffffffffffffffffffffffffffffffffffff16815260200190815260200160002054905092915050565b60007fd9b67a26000000000000000000000000000000000000000000000000000000007bffffffffffffffffffffffffffffffffffffffffffffffffffffffff1916827bffffffffffffffffffffffffffffffffffffffffffffffffffffffff191614806105c657507f0e89341c000000000000000000000000000000000000000000000000000000007bffffffffffffffffffffffffffffffffffffffffffffffffffffffff1916827bffffffffffffffffffffffffffffffffffffffffffffffffffffffff1916145b806105d657506105d5826128a7565b5b9050919050565b6001600460008282546105f0919061481f565b925050819055508a600560006004548152602001908152602001600020600001908161061c9190614a5f565b508960056000600454815260200190815260200160002060010190816106429190614a5f565b503360056000600454815260200190815260200160002060040160006101000a81548173ffffffffffffffffffffffffffffffffffffffff021916908373ffffffffffffffffffffffffffffffffffffffff1602179055508760056000600454815260200190815260200160002060020190816106bf9190614a5f565b508660056000600454815260200190815260200160002060030190816106e59190614a5f565b5060006005600060045481526020019081526020016000206005018190555060006005600060045481526020019081526020016000206006018190555060006005600060045481526020019081526020016000206007018190555088600560006004548152602001908152602001600020600801819055508560056000600454815260200190815260200160002060090160006101000a81548160ff0219169083151502179055508460056000600454815260200190815260200160002060090160016101000a81548160ff0219169083151502179055508360056000600454815260200190815260200160002060090160026101000a81548160ff0219169083151502179055508260056000600454815260200190815260200160002060090160036101000a81548160ff0219169083151502179055508160056000600454815260200190815260200160002060090160046101000a81548160ff0219169083151502179055508060056000600454815260200190815260200160002060090160056101000a81548160ff02191690831515021790555042600560006004548152602001908152602001600020600a01819055506108b833600454600160405180602001604052806000815250612911565b600360003373ffffffffffffffffffffffffffffffffffffffff1673ffffffffffffffffffffffffffffffffffffffff16815260200190815260200160002060040160045490806001815401808255809150506001900390600052602060002001600090919091909150557f58837fefdfb55c6f3a9908bd7a75500ab2242385c58a781cba1be0b9ac79bd8a60045489338c8a8a8a8a8a8a600560006004548152602001908152602001600020600a01546040516109809b9a99989796959493929190614b40565b60405180910390a15050505050505050505050565b6060600280546109a490614882565b80601f01602080910402602001604051908101604052809291908181526020018280546109d090614882565b8015610a1d5780601f106109f257610100808354040283529160200191610a1d565b820191906000526020600020905b815481529060010190602001808311610a0057829003601f168201915b50505050509050919050565b80600360003373ffffffffffffffffffffffffffffffffffffffff1673ffffffffffffffffffffffffffffffffffffffff1681526020019081526020016000206000019081610a789190614a5f565b5033600360003373ffffffffffffffffffffffffffffffffffffffff1673ffffffffffffffffffffffffffffffffffffffff16815260200190815260200160002060010160006101000a81548173ffffffffffffffffffffffffffffffffffffffff021916908373ffffffffffffffffffffffffffffffffffffffff1602179055506000600360003373ffffffffffffffffffffffffffffffffffffffff1673ffffffffffffffffffffffffffffffffffffffff16815260200190815260200160002060020181905550610b633360016404a817c80060405180602001604052806000815250612911565b50565b610b873360016402540be40060405180602001604052806000815250612911565b565b600080610b9583611b10565b6005600085815260200190815260200160002060080154610bb69190614bf2565b905080915050919050565b6000610bcb6129aa565b90508073ffffffffffffffffffffffffffffffffffffffff168673ffffffffffffffffffffffffffffffffffffffff1614158015610c105750610c0e868261276b565b155b15610c545780866040517fe237d922000000000000000000000000000000000000000000000000000000008152600401610c4b929190614c34565b60405180910390fd5b610c6186868686866129b2565b505050505050565b606060006001600454610c7c9190614c5d565b67ffffffffffffffff811115610c9557610c9461387b565b5b604051908082528060200260200182016040528015610cce57816020015b610cbb613545565b815260200190600190039081610cb35790505b5090506000600290505b600454811161119857604051806102000160405280600560008481526020019081526020016000206000018054610d0e90614882565b80601f0160208091040260200160405190810160405280929190818152602001828054610d3a90614882565b8015610d875780601f10610d5c57610100808354040283529160200191610d87565b820191906000526020600020905b815481529060010190602001808311610d6a57829003601f168201915b50505050508152602001600560008481526020019081526020016000206001018054610db290614882565b80601f0160208091040260200160405190810160405280929190818152602001828054610dde90614882565b8015610e2b5780601f10610e0057610100808354040283529160200191610e2b565b820191906000526020600020905b815481529060010190602001808311610e0e57829003601f168201915b50505050508152602001600560008481526020019081526020016000206002018054610e5690614882565b80601f0160208091040260200160405190810160405280929190818152602001828054610e8290614882565b8015610ecf5780601f10610ea457610100808354040283529160200191610ecf565b820191906000526020600020905b815481529060010190602001808311610eb257829003601f168201915b50505050508152602001600560008481526020019081526020016000206003018054610efa90614882565b80601f0160208091040260200160405190810160405280929190818152602001828054610f2690614882565b8015610f735780601f10610f4857610100808354040283529160200191610f73565b820191906000526020600020905b815481529060010190602001808311610f5657829003601f168201915b505050505081526020016005600084815260200190815260200160002060040160009054906101000a900473ffffffffffffffffffffffffffffffffffffffff1673ffffffffffffffffffffffffffffffffffffffff168152602001600560008481526020019081526020016000206005015481526020016005600084815260200190815260200160002060060154815260200160056000848152602001908152602001600020600701548152602001600560008481526020019081526020016000206008015481526020016005600084815260200190815260200160002060090160009054906101000a900460ff16151581526020016005600084815260200190815260200160002060090160019054906101000a900460ff16151581526020016005600084815260200190815260200160002060090160029054906101000a900460ff16151581526020016005600084815260200190815260200160002060090160039054906101000a900460ff16151581526020016005600084815260200190815260200160002060090160049054906101000a900460ff16151581526020016005600084815260200190815260200160002060090160059054906101000a900460ff161515815260200160056000848152602001908152602001600020600a0154815250826002836111699190614c5d565b8151811061117a57611179614c91565b5b6020026020010181905250808061119090614cc0565b915050610cd8565b508091505090565b3373ffffffffffffffffffffffffffffffffffffffff166005600083815260200190815260200160002060040160009054906101000a900473ffffffffffffffffffffffffffffffffffffffff1673ffffffffffffffffffffffffffffffffffffffff1614611244576040517f08c379a000000000000000000000000000000000000000000000000000000000815260040161123b90614d7a565b60405180910390fd5b600061125033836104a1565b11611290576040517f08c379a000000000000000000000000000000000000000000000000000000000815260040161128790614de6565b60405180910390fd5b6112ad3383836001604051806020016040528060008152506127ff565b816005600083815260200190815260200160002060040160006101000a81548173ffffffffffffffffffffffffffffffffffffffff021916908373ffffffffffffffffffffffffffffffffffffffff1602179055506000600360003373ffffffffffffffffffffffffffffffffffffffff1673ffffffffffffffffffffffffffffffffffffffff1681526020019081526020016000206004018054905067ffffffffffffffff8111156113635761136261387b565b5b6040519080825280602002602001820160405280156113915781602001602082028036833780820191505090505b50905060005b600360003373ffffffffffffffffffffffffffffffffffffffff1673ffffffffffffffffffffffffffffffffffffffff1681526020019081526020016000206004018054905081101561150157600360003373ffffffffffffffffffffffffffffffffffffffff1673ffffffffffffffffffffffffffffffffffffffff168152602001908152602001600020600401818154811061143857611437614c91565b5b906000526020600020015483146114cc57600360003373ffffffffffffffffffffffffffffffffffffffff1673ffffffffffffffffffffffffffffffffffffffff168152602001908152602001600020600401818154811061149d5761149c614c91565b5b90600052602060002001548282815181106114bb576114ba614c91565b5b6020026020010181815250506114ee565b60008282815181106114e1576114e0614c91565b5b6020026020010181815250505b80806114f990614cc0565b915050611397565b5080600360003373ffffffffffffffffffffffffffffffffffffffff1673ffffffffffffffffffffffffffffffffffffffff16815260200190815260200160002060040190805190602001906115589291906135e4565b50600360008473ffffffffffffffffffffffffffffffffffffffff1673ffffffffffffffffffffffffffffffffffffffff168152602001908152602001600020600401829080600181540180825580915050600190039060005260206000200160009091909190915055505050565b600360008273ffffffffffffffffffffffffffffffffffffffff1673ffffffffffffffffffffffffffffffffffffffff168152602001908152602001600020600201600081548092919061161a90614cc0565b9190505550600360008273ffffffffffffffffffffffffffffffffffffffff1673ffffffffffffffffffffffffffffffffffffffff168152602001908152602001600020600301339080600181540180825580915050600190039060005260206000200160009091909190916101000a81548173ffffffffffffffffffffffffffffffffffffffff021916908373ffffffffffffffffffffffffffffffffffffffff1602179055507f5db0e562b58e88ae25b795493b5a9c538bb02bd38430aa3194dbf8c68f619f54600360008373ffffffffffffffffffffffffffffffffffffffff1673ffffffffffffffffffffffffffffffffffffffff1681526020019081526020016000206002015482604051611735929190614e06565b60405180910390a150565b6060815183511461178c57815183516040517f5b059991000000000000000000000000000000000000000000000000000000008152600401611783929190614e2f565b60405180910390fd5b6000835167ffffffffffffffff8111156117a9576117a861387b565b5b6040519080825280602002602001820160405280156117d75781602001602082028036833780820191505090505b50905060005b8451811015611844576118146117fc8287612aaa90919063ffffffff16565b61180f8387612abe90919063ffffffff16565b6104a1565b82828151811061182757611826614c91565b5b6020026020010181815250508061183d90614cc0565b90506117dd565b508091505092915050565b611857613631565b600360008373ffffffffffffffffffffffffffffffffffffffff1673ffffffffffffffffffffffffffffffffffffffff1681526020019081526020016000206040518060a00160405290816000820180546118b190614882565b80601f01602080910402602001604051908101604052809291908181526020018280546118dd90614882565b801561192a5780601f106118ff5761010080835404028352916020019161192a565b820191906000526020600020905b81548152906001019060200180831161190d57829003601f168201915b505050505081526020016001820160009054906101000a900473ffffffffffffffffffffffffffffffffffffffff1673ffffffffffffffffffffffffffffffffffffffff1673ffffffffffffffffffffffffffffffffffffffff1681526020016002820154815260200160038201805480602002602001604051908101604052809291908181526020018280548015611a1857602002820191906000526020600020905b8160009054906101000a900473ffffffffffffffffffffffffffffffffffffffff1673ffffffffffffffffffffffffffffffffffffffff16815260200190600101908083116119ce575b5050505050815260200160048201805480602002602001604051908101604052809291908181526020018280548015611a7057602002820191906000526020600020905b815481526020019060010190808311611a5c575b5050505050815250509050919050565b6000611a8b82610b89565b9050600560008381526020019081526020016000206005016000815480929190611ab490614cc0565b9190505550611b0c336005600085815260200190815260200160002060040160009054906101000a900473ffffffffffffffffffffffffffffffffffffffff16600184604051806020016040528060008152506127ff565b5050565b6000806005600084815260200190815260200160002060060154620f4240611b38919061481f565b905080915050919050565b611b4b613545565b6005600083815260200190815260200160002060405180610200016040529081600082018054611b7a90614882565b80601f0160208091040260200160405190810160405280929190818152602001828054611ba690614882565b8015611bf35780601f10611bc857610100808354040283529160200191611bf3565b820191906000526020600020905b815481529060010190602001808311611bd657829003601f168201915b50505050508152602001600182018054611c0c90614882565b80601f0160208091040260200160405190810160405280929190818152602001828054611c3890614882565b8015611c855780601f10611c5a57610100808354040283529160200191611c85565b820191906000526020600020905b815481529060010190602001808311611c6857829003601f168201915b50505050508152602001600282018054611c9e90614882565b80601f0160208091040260200160405190810160405280929190818152602001828054611cca90614882565b8015611d175780601f10611cec57610100808354040283529160200191611d17565b820191906000526020600020905b815481529060010190602001808311611cfa57829003601f168201915b50505050508152602001600382018054611d3090614882565b80601f0160208091040260200160405190810160405280929190818152602001828054611d5c90614882565b8015611da95780601f10611d7e57610100808354040283529160200191611da9565b820191906000526020600020905b815481529060010190602001808311611d8c57829003601f168201915b505050505081526020016004820160009054906101000a900473ffffffffffffffffffffffffffffffffffffffff1673ffffffffffffffffffffffffffffffffffffffff1673ffffffffffffffffffffffffffffffffffffffff168152602001600582015481526020016006820154815260200160078201548152602001600882015481526020016009820160009054906101000a900460ff161515151581526020016009820160019054906101000a900460ff161515151581526020016009820160029054906101000a900460ff161515151581526020016009820160039054906101000a900460ff161515151581526020016009820160049054906101000a900460ff161515151581526020016009820160059054906101000a900460ff16151515158152602001600a820154815250509050919050565b611ef5611eee6129aa565b8383612ad2565b5050565b600560008281526020019081526020016000206007016000815480929190611f2090614cc0565b91905055507f95f79575c53a5203d3d47d3b41acc429cb3d5bc3bac586bd19d32de154387ca6600560008381526020019081526020016000206007015482604051611f6c929190614e2f565b60405180910390a150565b60606000600360008473ffffffffffffffffffffffffffffffffffffffff1673ffffffffffffffffffffffffffffffffffffffff16815260200190815260200160002060040180548060200260200160405190810160405280929190818152602001828054801561200757602002820191906000526020600020905b815481526020019060010190808311611ff3575b505050505090506000815167ffffffffffffffff81111561202b5761202a61387b565b5b60405190808252806020026020018201604052801561206457816020015b612051613545565b8152602001906001900390816120495790505b50905060005b600183516120789190614c5d565b81116126c957604051806102000160405280600560008685815181106120a1576120a0614c91565b5b6020026020010151815260200190815260200160002060000180546120c590614882565b80601f01602080910402602001604051908101604052809291908181526020018280546120f190614882565b801561213e5780601f106121135761010080835404028352916020019161213e565b820191906000526020600020905b81548152906001019060200180831161212157829003601f168201915b505050505081526020016005600086858151811061215f5761215e614c91565b5b60200260200101518152602001908152602001600020600101805461218390614882565b80601f01602080910402602001604051908101604052809291908181526020018280546121af90614882565b80156121fc5780601f106121d1576101008083540402835291602001916121fc565b820191906000526020600020905b8154815290600101906020018083116121df57829003601f168201915b505050505081526020016005600086858151811061221d5761221c614c91565b5b60200260200101518152602001908152602001600020600201805461224190614882565b80601f016020809104026020016040519081016040528092919081815260200182805461226d90614882565b80156122ba5780601f1061228f576101008083540402835291602001916122ba565b820191906000526020600020905b81548152906001019060200180831161229d57829003601f168201915b50505050508152602001600560008685815181106122db576122da614c91565b5b6020026020010151815260200190815260200160002060030180546122ff90614882565b80601f016020809104026020016040519081016040528092919081815260200182805461232b90614882565b80156123785780601f1061234d57610100808354040283529160200191612378565b820191906000526020600020905b81548152906001019060200180831161235b57829003601f168201915b505050505081526020016005600086858151811061239957612398614c91565b5b6020026020010151815260200190815260200160002060040160009054906101000a900473ffffffffffffffffffffffffffffffffffffffff1673ffffffffffffffffffffffffffffffffffffffff1681526020016005600086858151811061240557612404614c91565b5b602002602001015181526020019081526020016000206005015481526020016005600086858151811061243b5761243a614c91565b5b602002602001015181526020019081526020016000206006015481526020016005600086858151811061247157612470614c91565b5b60200260200101518152602001908152602001600020600701548152602001600560008685815181106124a7576124a6614c91565b5b60200260200101518152602001908152602001600020600801548152602001600560008685815181106124dd576124dc614c91565b5b6020026020010151815260200190815260200160002060090160009054906101000a900460ff16151581526020016005600086858151811061252257612521614c91565b5b6020026020010151815260200190815260200160002060090160019054906101000a900460ff16151581526020016005600086858151811061256757612566614c91565b5b6020026020010151815260200190815260200160002060090160029054906101000a900460ff1615158152602001600560008685815181106125ac576125ab614c91565b5b6020026020010151815260200190815260200160002060090160039054906101000a900460ff1615158152602001600560008685815181106125f1576125f0614c91565b5b6020026020010151815260200190815260200160002060090160049054906101000a900460ff16151581526020016005600086858151811061263657612635614c91565b5b6020026020010151815260200190815260200160002060090160059054906101000a900460ff16151581526020016005600086858151811061267b5761267a614c91565b5b60200260200101518152602001908152602001600020600a01548152508282815181106126ab576126aa614c91565b5b602002602001018190525080806126c190614cc0565b91505061206a565b508092505050919050565b6005600082815260200190815260200160002060060160008154809291906126fb90614cc0565b91905055507fbfbb80b99cdab6417ba36d9f1f214f7fd61d4ec66609c20e8eead0d1d0c3bdfc600560008381526020019081526020016000206006015482604051612747929190614e2f565b60405180910390a150565b6000806127608360016104a1565b905080915050919050565b6000600160008473ffffffffffffffffffffffffffffffffffffffff1673ffffffffffffffffffffffffffffffffffffffff16815260200190815260200160002060008373ffffffffffffffffffffffffffffffffffffffff1673ffffffffffffffffffffffffffffffffffffffff16815260200190815260200160002060009054906101000a900460ff16905092915050565b60006128096129aa565b90508073ffffffffffffffffffffffffffffffffffffffff168673ffffffffffffffffffffffffffffffffffffffff161415801561284e575061284c868261276b565b155b156128925780866040517fe237d922000000000000000000000000000000000000000000000000000000008152600401612889929190614c34565b60405180910390fd5b61289f8686868686612c42565b505050505050565b60007f01ffc9a7000000000000000000000000000000000000000000000000000000007bffffffffffffffffffffffffffffffffffffffffffffffffffffffff1916827bffffffffffffffffffffffffffffffffffffffffffffffffffffffff1916149050919050565b600073ffffffffffffffffffffffffffffffffffffffff168473ffffffffffffffffffffffffffffffffffffffff16036129835760006040517f57f447ce00000000000000000000000000000000000000000000000000000000815260040161297a9190614e58565b60405180910390fd5b6000806129908585612d4d565b915091506129a2600087848487612d7d565b505050505050565b600033905090565b600073ffffffffffffffffffffffffffffffffffffffff168473ffffffffffffffffffffffffffffffffffffffff1603612a245760006040517f57f447ce000000000000000000000000000000000000000000000000000000008152600401612a1b9190614e58565b60405180910390fd5b600073ffffffffffffffffffffffffffffffffffffffff168573ffffffffffffffffffffffffffffffffffffffff1603612a965760006040517f01a83514000000000000000000000000000000000000000000000000000000008152600401612a8d9190614e58565b60405180910390fd5b612aa38585858585612d7d565b5050505050565b600060208202602084010151905092915050565b600060208202602084010151905092915050565b600073ffffffffffffffffffffffffffffffffffffffff168273ffffffffffffffffffffffffffffffffffffffff1603612b445760006040517fced3e100000000000000000000000000000000000000000000000000000000008152600401612b3b9190614e58565b60405180910390fd5b80600160008573ffffffffffffffffffffffffffffffffffffffff1673ffffffffffffffffffffffffffffffffffffffff16815260200190815260200160002060008473ffffffffffffffffffffffffffffffffffffffff1673ffffffffffffffffffffffffffffffffffffffff16815260200190815260200160002060006101000a81548160ff0219169083151502179055508173ffffffffffffffffffffffffffffffffffffffff168373ffffffffffffffffffffffffffffffffffffffff167f17307eab39ab6107e8899845ad3d59bd9653f200f220920489ca2b5937696c3183604051612c359190613845565b60405180910390a3505050565b600073ffffffffffffffffffffffffffffffffffffffff168473ffffffffffffffffffffffffffffffffffffffff1603612cb45760006040517f57f447ce000000000000000000000000000000000000000000000000000000008152600401612cab9190614e58565b60405180910390fd5b600073ffffffffffffffffffffffffffffffffffffffff168573ffffffffffffffffffffffffffffffffffffffff1603612d265760006040517f01a83514000000000000000000000000000000000000000000000000000000008152600401612d1d9190614e58565b60405180910390fd5b600080612d338585612d4d565b91509150612d448787848487612d7d565b50505050505050565b60608060405191506001825283602083015260408201905060018152826020820152604081016040529250929050565b612d8985858585612e2f565b600073ffffffffffffffffffffffffffffffffffffffff168473ffffffffffffffffffffffffffffffffffffffff1614612e28576000612dc76129aa565b90506001845103612e17576000612de8600086612abe90919063ffffffff16565b90506000612e00600086612abe90919063ffffffff16565b9050612e108389898585896131dd565b5050612e26565b612e25818787878787613391565b5b505b5050505050565b8051825114612e7957815181516040517f5b059991000000000000000000000000000000000000000000000000000000008152600401612e70929190614e2f565b60405180910390fd5b6000612e836129aa565b905060005b8351811015613098576000612ea68286612abe90919063ffffffff16565b90506000612ebd8386612abe90919063ffffffff16565b9050600073ffffffffffffffffffffffffffffffffffffffff168873ffffffffffffffffffffffffffffffffffffffff1614612fea57600080600084815260200190815260200160002060008a73ffffffffffffffffffffffffffffffffffffffff1673ffffffffffffffffffffffffffffffffffffffff16815260200190815260200160002054905081811015612f9257888183856040517f03dee4c5000000000000000000000000000000000000000000000000000000008152600401612f899493929190614e73565b60405180910390fd5b81810360008085815260200190815260200160002060008b73ffffffffffffffffffffffffffffffffffffffff1673ffffffffffffffffffffffffffffffffffffffff16815260200190815260200160002081905550505b600073ffffffffffffffffffffffffffffffffffffffff168773ffffffffffffffffffffffffffffffffffffffff1614613085578060008084815260200190815260200160002060008973ffffffffffffffffffffffffffffffffffffffff1673ffffffffffffffffffffffffffffffffffffffff168152602001908152602001600020600082825461307d919061481f565b925050819055505b50508061309190614cc0565b9050612e88565b5060018351036131575760006130b8600085612abe90919063ffffffff16565b905060006130d0600085612abe90919063ffffffff16565b90508573ffffffffffffffffffffffffffffffffffffffff168773ffffffffffffffffffffffffffffffffffffffff168473ffffffffffffffffffffffffffffffffffffffff167fc3d58168c5ae7397731d063d5bbf3d657854427343f4c083240f7aacaa2d0f628585604051613148929190614e2f565b60405180910390a450506131d6565b8373ffffffffffffffffffffffffffffffffffffffff168573ffffffffffffffffffffffffffffffffffffffff168273ffffffffffffffffffffffffffffffffffffffff167f4a39dc06d4c0dbc64b70af90fd698a233a518aa5d07e595d983b8c0526c8f7fb86866040516131cd929190614eb8565b60405180910390a45b5050505050565b60008473ffffffffffffffffffffffffffffffffffffffff163b1115613389578373ffffffffffffffffffffffffffffffffffffffff1663f23a6e6187878686866040518663ffffffff1660e01b815260040161323e959493929190614f44565b6020604051808303816000875af192505050801561327a57506040513d601f19601f820116820180604052508101906132779190614fb3565b60015b6132fe573d80600081146132aa576040519150601f19603f3d011682016040523d82523d6000602084013e6132af565b606091505b5060008151036132f657846040517f57f447ce0000000000000000000000000000000000000000000000000000000081526004016132ed9190614e58565b60405180910390fd5b805181602001fd5b63f23a6e6160e01b7bffffffffffffffffffffffffffffffffffffffffffffffffffffffff1916817bffffffffffffffffffffffffffffffffffffffffffffffffffffffff19161461338757846040517f57f447ce00000000000000000000000000000000000000000000000000000000815260040161337e9190614e58565b60405180910390fd5b505b505050505050565b60008473ffffffffffffffffffffffffffffffffffffffff163b111561353d578373ffffffffffffffffffffffffffffffffffffffff1663bc197c8187878686866040518663ffffffff1660e01b81526004016133f2959493929190614fe0565b6020604051808303816000875af192505050801561342e57506040513d601f19601f8201168201806040525081019061342b9190614fb3565b60015b6134b2573d806000811461345e576040519150601f19603f3d011682016040523d82523d6000602084013e613463565b606091505b5060008151036134aa57846040517f57f447ce0000000000000000000000000000000000000000000000000000000081526004016134a19190614e58565b60405180910390fd5b805181602001fd5b63bc197c8160e01b7bffffffffffffffffffffffffffffffffffffffffffffffffffffffff1916817bffffffffffffffffffffffffffffffffffffffffffffffffffffffff19161461353b57846040517f57f447ce0000000000000000000000000000000000000000000000000000000081526004016135329190614e58565b60405180910390fd5b505b505050505050565b60405180610200016040528060608152602001606081526020016060815260200160608152602001600073ffffffffffffffffffffffffffffffffffffffff16815260200160008152602001600081526020016000815260200160008152602001600015158152602001600015158152602001600015158152602001600015158152602001600015158152602001600015158152602001600081525090565b828054828255906000526020600020908101928215613620579160200282015b8281111561361f578251825591602001919060010190613604565b5b50905061362d9190613676565b5090565b6040518060a0016040528060608152602001600073ffffffffffffffffffffffffffffffffffffffff1681526020016000815260200160608152602001606081525090565b5b8082111561368f576000816000905550600101613677565b5090565b6000604051905090565b600080fd5b600080fd5b600073ffffffffffffffffffffffffffffffffffffffff82169050919050565b60006136d2826136a7565b9050919050565b6136e2816136c7565b81146136ed57600080fd5b50565b6000813590506136ff816136d9565b92915050565b6000819050919050565b61371881613705565b811461372357600080fd5b50565b6000813590506137358161370f565b92915050565b600080604083850312156137525761375161369d565b5b6000613760858286016136f0565b925050602061377185828601613726565b9150509250929050565b61378481613705565b82525050565b600060208201905061379f600083018461377b565b92915050565b60007fffffffff0000000000000000000000000000000000000000000000000000000082169050919050565b6137da816137a5565b81146137e557600080fd5b50565b6000813590506137f7816137d1565b92915050565b6000602082840312156138135761381261369d565b5b6000613821848285016137e8565b91505092915050565b60008115159050919050565b61383f8161382a565b82525050565b600060208201905061385a6000830184613836565b92915050565b600080fd5b600080fd5b6000601f19601f8301169050919050565b7f4e487b7100000000000000000000000000000000000000000000000000000000600052604160045260246000fd5b6138b38261386a565b810181811067ffffffffffffffff821117156138d2576138d161387b565b5b80604052505050565b60006138e5613693565b90506138f182826138aa565b919050565b600067ffffffffffffffff8211156139115761391061387b565b5b61391a8261386a565b9050602081019050919050565b82818337600083830152505050565b6000613949613944846138f6565b6138db565b90508281526020810184848401111561396557613964613865565b5b613970848285613927565b509392505050565b600082601f83011261398d5761398c613860565b5b813561399d848260208601613936565b91505092915050565b6139af8161382a565b81146139ba57600080fd5b50565b6000813590506139cc816139a6565b92915050565b60008060008060008060008060008060006101608c8e0312156139f8576139f761369d565b5b60008c013567ffffffffffffffff811115613a1657613a156136a2565b5b613a228e828f01613978565b9b505060208c013567ffffffffffffffff811115613a4357613a426136a2565b5b613a4f8e828f01613978565b9a50506040613a608e828f01613726565b99505060608c013567ffffffffffffffff811115613a8157613a806136a2565b5b613a8d8e828f01613978565b98505060808c013567ffffffffffffffff811115613aae57613aad6136a2565b5b613aba8e828f01613978565b97505060a0613acb8e828f016139bd565b96505060c0613adc8e828f016139bd565b95505060e0613aed8e828f016139bd565b945050610100613aff8e828f016139bd565b935050610120613b118e828f016139bd565b925050610140613b238e828f016139bd565b9150509295989b509295989b9093969950565b600060208284031215613b4c57613b4b61369d565b5b6000613b5a84828501613726565b91505092915050565b600081519050919050565b600082825260208201905092915050565b60005b83811015613b9d578082015181840152602081019050613b82565b60008484015250505050565b6000613bb482613b63565b613bbe8185613b6e565b9350613bce818560208601613b7f565b613bd78161386a565b840191505092915050565b60006020820190508181036000830152613bfc8184613ba9565b905092915050565b600060208284031215613c1a57613c1961369d565b5b600082013567ffffffffffffffff811115613c3857613c376136a2565b5b613c4484828501613978565b91505092915050565b600067ffffffffffffffff821115613c6857613c6761387b565b5b602082029050602081019050919050565b600080fd5b6000613c91613c8c84613c4d565b6138db565b90508083825260208201905060208402830185811115613cb457613cb3613c79565b5b835b81811015613cdd5780613cc98882613726565b845260208401935050602081019050613cb6565b5050509392505050565b600082601f830112613cfc57613cfb613860565b5b8135613d0c848260208601613c7e565b91505092915050565b600067ffffffffffffffff821115613d3057613d2f61387b565b5b613d398261386a565b9050602081019050919050565b6000613d59613d5484613d15565b6138db565b905082815260208101848484011115613d7557613d74613865565b5b613d80848285613927565b509392505050565b600082601f830112613d9d57613d9c613860565b5b8135613dad848260208601613d46565b91505092915050565b600080600080600060a08688031215613dd257613dd161369d565b5b6000613de0888289016136f0565b9550506020613df1888289016136f0565b945050604086013567ffffffffffffffff811115613e1257613e116136a2565b5b613e1e88828901613ce7565b935050606086013567ffffffffffffffff811115613e3f57613e3e6136a2565b5b613e4b88828901613ce7565b925050608086013567ffffffffffffffff811115613e6c57613e6b6136a2565b5b613e7888828901613d88565b9150509295509295909350565b600081519050919050565b600082825260208201905092915050565b6000819050602082019050919050565b600082825260208201905092915050565b6000613ecd82613b63565b613ed78185613eb1565b9350613ee7818560208601613b7f565b613ef08161386a565b840191505092915050565b613f04816136c7565b82525050565b613f1381613705565b82525050565b613f228161382a565b82525050565b6000610200830160008301518482036000860152613f468282613ec2565b91505060208301518482036020860152613f608282613ec2565b91505060408301518482036040860152613f7a8282613ec2565b91505060608301518482036060860152613f948282613ec2565b9150506080830151613fa96080860182613efb565b5060a0830151613fbc60a0860182613f0a565b5060c0830151613fcf60c0860182613f0a565b5060e0830151613fe260e0860182613f0a565b50610100830151613ff7610100860182613f0a565b5061012083015161400c610120860182613f19565b50610140830151614021610140860182613f19565b50610160830151614036610160860182613f19565b5061018083015161404b610180860182613f19565b506101a08301516140606101a0860182613f19565b506101c08301516140756101c0860182613f19565b506101e083015161408a6101e0860182613f0a565b508091505092915050565b60006140a18383613f28565b905092915050565b6000602082019050919050565b60006140c182613e85565b6140cb8185613e90565b9350836020820285016140dd85613ea1565b8060005b8581101561411957848403895281516140fa8582614095565b9450614105836140a9565b925060208a019950506001810190506140e1565b50829750879550505050505092915050565b6000602082019050818103600083015261414581846140b6565b905092915050565b6000602082840312156141635761416261369d565b5b6000614171848285016136f0565b91505092915050565b600067ffffffffffffffff8211156141955761419461387b565b5b602082029050602081019050919050565b60006141b96141b48461417a565b6138db565b905080838252602082019050602084028301858111156141dc576141db613c79565b5b835b8181101561420557806141f188826136f0565b8452602084019350506020810190506141de565b5050509392505050565b600082601f83011261422457614223613860565b5b81356142348482602086016141a6565b91505092915050565b600080604083850312156142545761425361369d565b5b600083013567ffffffffffffffff811115614272576142716136a2565b5b61427e8582860161420f565b925050602083013567ffffffffffffffff81111561429f5761429e6136a2565b5b6142ab85828601613ce7565b9150509250929050565b600081519050919050565b600082825260208201905092915050565b6000819050602082019050919050565b60006142ed8383613f0a565b60208301905092915050565b6000602082019050919050565b6000614311826142b5565b61431b81856142c0565b9350614326836142d1565b8060005b8381101561435757815161433e88826142e1565b9750614349836142f9565b92505060018101905061432a565b5085935050505092915050565b6000602082019050818103600083015261437e8184614306565b905092915050565b600081519050919050565b600082825260208201905092915050565b6000819050602082019050919050565b60006143be8383613efb565b60208301905092915050565b6000602082019050919050565b60006143e282614386565b6143ec8185614391565b93506143f7836143a2565b8060005b8381101561442857815161440f88826143b2565b975061441a836143ca565b9250506001810190506143fb565b5085935050505092915050565b600082825260208201905092915050565b6000614451826142b5565b61445b8185614435565b9350614466836142d1565b8060005b8381101561449757815161447e88826142e1565b9750614489836142f9565b92505060018101905061446a565b5085935050505092915050565b600060a08301600083015184820360008601526144c18282613ec2565b91505060208301516144d66020860182613efb565b5060408301516144e96040860182613f0a565b506060830151848203606086015261450182826143d7565b9150506080830151848203608086015261451b8282614446565b9150508091505092915050565b6000602082019050818103600083015261454281846144a4565b905092915050565b60006102008301600083015184820360008601526145688282613ec2565b915050602083015184820360208601526145828282613ec2565b9150506040830151848203604086015261459c8282613ec2565b915050606083015184820360608601526145b68282613ec2565b91505060808301516145cb6080860182613efb565b5060a08301516145de60a0860182613f0a565b5060c08301516145f160c0860182613f0a565b5060e083015161460460e0860182613f0a565b50610100830151614619610100860182613f0a565b5061012083015161462e610120860182613f19565b50610140830151614643610140860182613f19565b50610160830151614658610160860182613f19565b5061018083015161466d610180860182613f19565b506101a08301516146826101a0860182613f19565b506101c08301516146976101c0860182613f19565b506101e08301516146ac6101e0860182613f0a565b508091505092915050565b600060208201905081810360008301526146d1818461454a565b905092915050565b600080604083850312156146f0576146ef61369d565b5b60006146fe858286016136f0565b925050602061470f858286016139bd565b9150509250929050565b600080604083850312156147305761472f61369d565b5b600061473e858286016136f0565b925050602061474f858286016136f0565b9150509250929050565b600080600080600060a086880312156147755761477461369d565b5b6000614783888289016136f0565b9550506020614794888289016136f0565b94505060406147a588828901613726565b93505060606147b688828901613726565b925050608086013567ffffffffffffffff8111156147d7576147d66136a2565b5b6147e388828901613d88565b9150509295509295909350565b7f4e487b7100000000000000000000000000000000000000000000000000000000600052601160045260246000fd5b600061482a82613705565b915061483583613705565b925082820190508082111561484d5761484c6147f0565b5b92915050565b7f4e487b7100000000000000000000000000000000000000000000000000000000600052602260045260246000fd5b6000600282049050600182168061489a57607f821691505b6020821081036148ad576148ac614853565b5b50919050565b60008190508160005260206000209050919050565b60006020601f8301049050919050565b600082821b905092915050565b6000600883026149157fffffffffffffffffffffffffffffffffffffffffffffffffffffffffffffffff826148d8565b61491f86836148d8565b95508019841693508086168417925050509392505050565b6000819050919050565b600061495c61495761495284613705565b614937565b613705565b9050919050565b6000819050919050565b61497683614941565b61498a61498282614963565b8484546148e5565b825550505050565b600090565b61499f614992565b6149aa81848461496d565b505050565b5b818110156149ce576149c3600082614997565b6001810190506149b0565b5050565b601f821115614a13576149e4816148b3565b6149ed846148c8565b810160208510156149fc578190505b614a10614a08856148c8565b8301826149af565b50505b505050565b600082821c905092915050565b6000614a3660001984600802614a18565b1980831691505092915050565b6000614a4f8383614a25565b9150826002028217905092915050565b614a6882613b63565b67ffffffffffffffff811115614a8157614a8061387b565b5b614a8b8254614882565b614a968282856149d2565b600060209050601f831160018114614ac95760008415614ab7578287015190505b614ac18582614a43565b865550614b29565b601f198416614ad7866148b3565b60005b82811015614aff57848901518255600182019150602085019450602081019050614ada565b86831015614b1c5784890151614b18601f891682614a25565b8355505b6001600288020188555050505b505050505050565b614b3a816136c7565b82525050565b600061016082019050614b56600083018e61377b565b8181036020830152614b68818d613ba9565b9050614b77604083018c614b31565b614b84606083018b61377b565b614b91608083018a613836565b614b9e60a0830189613836565b614bab60c0830188613836565b614bb860e0830187613836565b614bc6610100830186613836565b614bd4610120830185613836565b614be261014083018461377b565b9c9b505050505050505050505050565b6000614bfd82613705565b9150614c0883613705565b9250828202614c1681613705565b91508282048414831517614c2d57614c2c6147f0565b5b5092915050565b6000604082019050614c496000830185614b31565b614c566020830184614b31565b9392505050565b6000614c6882613705565b9150614c7383613705565b9250828203905081811115614c8b57614c8a6147f0565b5b92915050565b7f4e487b7100000000000000000000000000000000000000000000000000000000600052603260045260246000fd5b6000614ccb82613705565b91507fffffffffffffffffffffffffffffffffffffffffffffffffffffffffffffffff8203614cfd57614cfc6147f0565b5b600182019050919050565b7f596f7520617265206e6f7420746865206f776e6572206f66207468697320766960008201527f64656f0000000000000000000000000000000000000000000000000000000000602082015250565b6000614d64602383613b6e565b9150614d6f82614d08565b604082019050919050565b60006020820190508181036000830152614d9381614d57565b9050919050565b7f596f7520646f206e6f74206861766520766964656f206e667400000000000000600082015250565b6000614dd0601983613b6e565b9150614ddb82614d9a565b602082019050919050565b60006020820190508181036000830152614dff81614dc3565b9050919050565b6000604082019050614e1b600083018561377b565b614e286020830184614b31565b9392505050565b6000604082019050614e44600083018561377b565b614e51602083018461377b565b9392505050565b6000602082019050614e6d6000830184614b31565b92915050565b6000608082019050614e886000830187614b31565b614e95602083018661377b565b614ea2604083018561377b565b614eaf606083018461377b565b95945050505050565b60006040820190508181036000830152614ed28185614306565b90508181036020830152614ee68184614306565b90509392505050565b600081519050919050565b600082825260208201905092915050565b6000614f1682614eef565b614f208185614efa565b9350614f30818560208601613b7f565b614f398161386a565b840191505092915050565b600060a082019050614f596000830188614b31565b614f666020830187614b31565b614f73604083018661377b565b614f80606083018561377b565b8181036080830152614f928184614f0b565b90509695505050505050565b600081519050614fad816137d1565b92915050565b600060208284031215614fc957614fc861369d565b5b6000614fd784828501614f9e565b91505092915050565b600060a082019050614ff56000830188614b31565b6150026020830187614b31565b81810360408301526150148186614306565b905081810360608301526150288185614306565b9050818103608083015261503c8184614f0b565b9050969550505050505056fea2646970667358221220ac50c0b7443399fbb6348a9c2c4e9d8b9f5106b1380788dd0c177a9af3eeb99a64736f6c63430008140033",
  "linkReferences": {},
  "deployedLinkReferences": {}
}